{
  "contractName": "AttendanceSheet",
  "abi": [
    {
      "anonymous": false,
      "inputs": [
        {
          "indexed": false,
          "internalType": "string",
          "name": "fName",
          "type": "string"
        },
        {
          "indexed": false,
          "internalType": "string",
          "name": "lName",
          "type": "string"
        },
        {
          "indexed": false,
          "internalType": "uint256",
          "name": "age",
          "type": "uint256"
        }
      ],
      "name": "StudentCreationEvent",
      "type": "event"
    },
    {
      "inputs": [
        {
          "internalType": "uint256",
          "name": "",
          "type": "uint256"
        }
      ],
      "name": "studIdList",
      "outputs": [
        {
          "internalType": "uint256",
          "name": "",
          "type": "uint256"
        }
      ],
      "stateMutability": "view",
      "type": "function",
      "constant": true
    },
    {
      "inputs": [
        {
          "internalType": "uint256",
          "name": "_studId",
          "type": "uint256"
        },
        {
          "internalType": "uint256",
          "name": "_age",
          "type": "uint256"
        },
        {
          "internalType": "string",
          "name": "_fName",
          "type": "string"
        },
        {
          "internalType": "string",
          "name": "_lName",
          "type": "string"
        }
      ],
      "name": "createStudent",
      "outputs": [],
      "stateMutability": "nonpayable",
      "type": "function"
    },
    {
      "inputs": [
        {
          "internalType": "uint256",
          "name": "_studId",
          "type": "uint256"
        }
      ],
      "name": "incrementAttendance",
      "outputs": [],
      "stateMutability": "nonpayable",
      "type": "function"
    },
    {
      "inputs": [
        {
          "internalType": "uint256[]",
          "name": "_studIds",
          "type": "uint256[]"
        }
      ],
      "name": "incrementAttendanceBulk",
      "outputs": [],
      "stateMutability": "nonpayable",
      "type": "function"
    },
    {
      "inputs": [],
      "name": "getStudents",
      "outputs": [
        {
          "internalType": "uint256[]",
          "name": "",
          "type": "uint256[]"
        }
      ],
      "stateMutability": "view",
      "type": "function",
      "constant": true
    },
    {
      "inputs": [
        {
          "internalType": "uint256",
          "name": "_studId",
          "type": "uint256"
        }
      ],
      "name": "getParticularStudent",
      "outputs": [
        {
          "internalType": "string",
          "name": "",
          "type": "string"
        },
        {
          "internalType": "string",
          "name": "",
          "type": "string"
        },
        {
          "internalType": "uint256",
          "name": "",
          "type": "uint256"
        },
        {
          "internalType": "uint256",
          "name": "",
          "type": "uint256"
        }
      ],
      "stateMutability": "view",
      "type": "function",
      "constant": true
    },
    {
      "inputs": [],
      "name": "countStudents",
      "outputs": [
        {
          "internalType": "uint256",
          "name": "",
          "type": "uint256"
        }
      ],
      "stateMutability": "view",
      "type": "function",
      "constant": true
    }
  ],
  "bytecode": "0x608060405234801561001057600080fd5b50336000806101000a81548173ffffffffffffffffffffffffffffffffffffffff021916908373ffffffffffffffffffffffffffffffffffffffff160217905550610e9c806100606000396000f3fe608060405234801561001057600080fd5b506004361061007d5760003560e01c8063ab9ba24f1161005b578063ab9ba24f146100ec578063cb0c7c0c1461011f578063f1d064b31461013b578063f74342da146101595761007d565b8063273ce3d914610082578063477f5a69146100b257806399251dc8146100d0575b600080fd5b61009c600480360381019061009791906108ce565b610175565b6040516100a99190610b97565b60405180910390f35b6100ba610199565b6040516100c79190610b97565b60405180910390f35b6100ea60048036038101906100e5919061088d565b6101a6565b005b610106600480360381019061010191906108ce565b6102d9565b6040516101169493929190610b24565b60405180910390f35b610139600480360381019061013491906108f7565b61045d565b005b6101436105b2565b6040516101509190610abd565b60405180910390f35b610173600480360381019061016e91906108ce565b61060a565b005b6002818154811061018557600080fd5b906000526020600020016000915090505481565b6000600280549050905090565b60008054906101000a900473ffffffffffffffffffffffffffffffffffffffff1673ffffffffffffffffffffffffffffffffffffffff163373ffffffffffffffffffffffffffffffffffffffff1614610234576040517f08c379a000000000000000000000000000000000000000000000000000000000815260040161022b90610b77565b60405180910390fd5b60005b81518110156102d557600082828151811061027b577f4e487b7100000000000000000000000000000000000000000000000000000000600052603260045260246000fd5b602002602001015190506001806000838152602001908152602001600020600301546102a79190610c94565b60016000838152602001908152602001600020600301819055505080806102cd90610d68565b915050610237565b5050565b6060806000806000600160008781526020019081526020016000206040518060800160405290816000820154815260200160018201805461031990610d36565b80601f016020809104026020016040519081016040528092919081815260200182805461034590610d36565b80156103925780601f1061036757610100808354040283529160200191610392565b820191906000526020600020905b81548152906001019060200180831161037557829003601f168201915b505050505081526020016002820180546103ab90610d36565b80601f01602080910402602001604051908101604052809291908181526020018280546103d790610d36565b80156104245780601f106103f957610100808354040283529160200191610424565b820191906000526020600020905b81548152906001019060200180831161040757829003601f168201915b50505050508152602001600382015481525050905080602001518160400151826000015183606001519450945094509450509193509193565b60008054906101000a900473ffffffffffffffffffffffffffffffffffffffff1673ffffffffffffffffffffffffffffffffffffffff163373ffffffffffffffffffffffffffffffffffffffff16146104eb576040517f08c379a00000000000000000000000000000000000000000000000000000000081526004016104e290610b77565b60405180910390fd5b6000600160008681526020019081526020016000209050838160000181905550828160010190805190602001906105239291906106d7565b508181600201908051906020019061053c9291906106d7565b506000816003018190555060028590806001815401808255809150506001900390600052602060002001600090919091909150557fa2fd65e58a697d549a302c5bc359190b8cb7b5b1a1e3d0f8c2c0c3b3feece77f8383866040516105a393929190610adf565b60405180910390a15050505050565b6060600280548060200260200160405190810160405280929190818152602001828054801561060057602002820191906000526020600020905b8154815260200190600101908083116105ec575b5050505050905090565b60008054906101000a900473ffffffffffffffffffffffffffffffffffffffff1673ffffffffffffffffffffffffffffffffffffffff163373ffffffffffffffffffffffffffffffffffffffff1614610698576040517f08c379a000000000000000000000000000000000000000000000000000000000815260040161068f90610b77565b60405180910390fd5b6001806000838152602001908152602001600020600301546106ba9190610c94565b600160008381526020019081526020016000206003018190555050565b8280546106e390610d36565b90600052602060002090601f016020900481019282610705576000855561074c565b82601f1061071e57805160ff191683800117855561074c565b8280016001018555821561074c579182015b8281111561074b578251825591602001919060010190610730565b5b509050610759919061075d565b5090565b5b8082111561077657600081600090555060010161075e565b5090565b600061078d61078884610be3565b610bb2565b905080838252602082019050828560208602820111156107ac57600080fd5b60005b858110156107dc57816107c28882610878565b8452602084019350602083019250506001810190506107af565b5050509392505050565b60006107f96107f484610c0f565b610bb2565b90508281526020810184848401111561081157600080fd5b61081c848285610cf4565b509392505050565b600082601f83011261083557600080fd5b813561084584826020860161077a565b91505092915050565b600082601f83011261085f57600080fd5b813561086f8482602086016107e6565b91505092915050565b60008135905061088781610e4f565b92915050565b60006020828403121561089f57600080fd5b600082013567ffffffffffffffff8111156108b957600080fd5b6108c584828501610824565b91505092915050565b6000602082840312156108e057600080fd5b60006108ee84828501610878565b91505092915050565b6000806000806080858703121561090d57600080fd5b600061091b87828801610878565b945050602061092c87828801610878565b935050604085013567ffffffffffffffff81111561094957600080fd5b6109558782880161084e565b925050606085013567ffffffffffffffff81111561097257600080fd5b61097e8782880161084e565b91505092959194509250565b60006109968383610a9f565b60208301905092915050565b60006109ad82610c4f565b6109b78185610c72565b93506109c283610c3f565b8060005b838110156109f35781516109da888261098a565b97506109e583610c65565b9250506001810190506109c6565b5085935050505092915050565b6000610a0b82610c5a565b610a158185610c83565b9350610a25818560208601610d03565b610a2e81610e3e565b840191505092915050565b6000610a46602583610c83565b91507f4f6e6c7920746865206f776e65722063616e2063616c6c20746869732066756e60008301527f6374696f6e0000000000000000000000000000000000000000000000000000006020830152604082019050919050565b610aa881610cea565b82525050565b610ab781610cea565b82525050565b60006020820190508181036000830152610ad781846109a2565b905092915050565b60006060820190508181036000830152610af98186610a00565b90508181036020830152610b0d8185610a00565b9050610b1c6040830184610aae565b949350505050565b60006080820190508181036000830152610b3e8187610a00565b90508181036020830152610b528186610a00565b9050610b616040830185610aae565b610b6e6060830184610aae565b95945050505050565b60006020820190508181036000830152610b9081610a39565b9050919050565b6000602082019050610bac6000830184610aae565b92915050565b6000604051905081810181811067ffffffffffffffff82111715610bd957610bd8610e0f565b5b8060405250919050565b600067ffffffffffffffff821115610bfe57610bfd610e0f565b5b602082029050602081019050919050565b600067ffffffffffffffff821115610c2a57610c29610e0f565b5b601f19601f8301169050602081019050919050565b6000819050602082019050919050565b600081519050919050565b600081519050919050565b6000602082019050919050565b600082825260208201905092915050565b600082825260208201905092915050565b6000610c9f82610cea565b9150610caa83610cea565b9250827fffffffffffffffffffffffffffffffffffffffffffffffffffffffffffffffff03821115610cdf57610cde610db1565b5b828201905092915050565b6000819050919050565b82818337600083830152505050565b60005b83811015610d21578082015181840152602081019050610d06565b83811115610d30576000848401525b50505050565b60006002820490506001821680610d4e57607f821691505b60208210811415610d6257610d61610de0565b5b50919050565b6000610d7382610cea565b91507fffffffffffffffffffffffffffffffffffffffffffffffffffffffffffffffff821415610da657610da5610db1565b5b600182019050919050565b7f4e487b7100000000000000000000000000000000000000000000000000000000600052601160045260246000fd5b7f4e487b7100000000000000000000000000000000000000000000000000000000600052602260045260246000fd5b7f4e487b7100000000000000000000000000000000000000000000000000000000600052604160045260246000fd5b6000601f19601f8301169050919050565b610e5881610cea565b8114610e6357600080fd5b5056fea26469706673582212207bc503f292b1ec310cc7b73ad974bdd3c5558ab5f69c8e7b72c20fa4179cc88164736f6c63430008000033",
  "immutableReferences": {},
  "source": "// SPDX-License-Identifier: MIT\npragma solidity >=0.4.22 <0.9.0;\n\ncontract Owned {\n    address owner;\n\n    constructor() {\n        owner = msg.sender;\n    }\n\n    modifier onlyOwner() {\n        require(msg.sender == owner, \"Only the owner can call this function\");\n        _;\n    }\n}\n\ncontract AttendanceSheet is Owned {\n    struct Student {\n        uint age;\n        string fName;\n        string lName;\n        uint attendanceValue;\n    }\n\n    mapping(uint => Student) studentList;\n    uint[] public studIdList;\n\n    event StudentCreationEvent(string fName, string lName, uint age);\n\n    function createStudent(\n        uint _studId,\n        uint _age,\n        string memory _fName,\n        string memory _lName\n    ) public onlyOwner {\n        Student storage student = studentList[_studId];\n        student.age = _age;\n        student.fName = _fName;\n        student.lName = _lName;\n        student.attendanceValue = 0;\n        studIdList.push(_studId);\n        emit StudentCreationEvent(_fName, _lName, _age);\n    }\n\n    function incrementAttendance(uint _studId) public onlyOwner {\n        studentList[_studId].attendanceValue =\n            studentList[_studId].attendanceValue +\n            1;\n    }\n\n    function incrementAttendanceBulk(uint[] memory _studIds) public onlyOwner {\n        for (uint256 index = 0; index < _studIds.length; index++) {\n            uint _studId = _studIds[index];\n            studentList[_studId].attendanceValue =\n                studentList[_studId].attendanceValue +\n                1;\n        }\n    }\n\n    function getStudents() public view returns (uint[] memory) {\n        return studIdList;\n    }\n\n    function getParticularStudent(\n        uint _studId\n    ) public view returns (string memory, string memory, uint, uint) {\n        Student memory student = studentList[_studId];\n        return (\n            student.fName,\n            student.lName,\n            student.age,\n            student.attendanceValue\n        );\n    }\n\n    function countStudents() public view returns (uint) {\n        return studIdList.length;\n    }\n}\n",
  "sourcePath": "D:\\Siddharth\\DBIT\\Files\\BE\\BC\\Project\\attendance_management_blockchain-main\\contracts\\attendance.sol",
  "compiler": {
    "name": "solc",
    "version": "0.8.0+commit.c7dfd78e.Emscripten.clang"
  },
  "schemaVersion": "3.4.16",
  "updatedAt": "2023-10-19T06:08:52.407Z",
  "networkType": "ethereum",
  "devdoc": {
    "kind": "dev",
    "methods": {},
    "version": 1
  },
  "userdoc": {
    "kind": "user",
    "methods": {},
    "version": 1
  }
}